:020000040000FA
:020000000528D1
:080008001D28B120831607300A
:100010008100AE01AF01B001B101B201A0308B008F
:100020000514851482309F00831240309F001F14F6
:10003000AC203D3081007D211C280B1D2128BA20D9
:1000400023200B110900C12183129F11AC208B20AA
:100050001E08A20083161E088312A1005A208312D4
:100060009F15AC208B201E08A30083161E08831248
:10007000A40069203B28C12190305521E8212708A0
:100080004221AB007A204A08FE212B08FA21E82100
:10009000A8305521B1219E305521E8212A0842215E
:1000A000AB007A204A08FE212B08FA21E821AA3069
:1000B000552108002108B3003030B4000C213A0863
:1000C000BC003908BD006430C10030213F08A700E2
:1000D00008002408B3003030B4000C213A08BC00FA
:1000E0003908BD006430C10030213F08AA003E0835
:1000F000A90008000130AB0708000430C40000303C
:10010000C5002908C2002A08C30004214408AC0025
:100110004508AD0008001F151F198C28080082072C
:10012000543465346D3470346534723461347434ED
:100130007534723461343A342034003448347534C0
:100140006D3465346434613464343A3420340034BA
:1001500043340034253400341430A000A00BAE2802
:100160000800A101A201A301A401A701A801A901FE
:10017000AA010800C12119221C2200003D30810083
:10018000DF20031CCE28E520031CCD28EA20031C19
:10019000CD28F020031CCD28F620CF200800043005
:1001A000B9212E084221F3213A30C6212F084221DD
:1001B000FA213A30C62130084221FA210800B20A59
:1001C0000A3032020318B2010800B10A0314311CCC
:1001D00003100800B00A3C3030020318B0010800D8
:1001E000AF0A3C302F020318AF010800AE0A1830E6
:1001F0002E020318AE010800C209C3090130C3076B
:100200000318C20A43080800FC204308C507031866
:10021000C20A4208C4070800BA01B9010830BB008D
:100220003308B40C0318BA07BA0CB90CBB0B11296C
:100230000800C601C701C801C9011030BB00B60CD7
:10024000B80C031C29293708C9070318C80A350840
:10025000C807C80CC90CC60CC70CBB0B1F2908006B
:10026000BE01BF01C0011030BB00BD0DBC0DC00DF3
:10027000410840020318C000BF0DBE0DBB0B35295D
:1002800040080800CA01CB01CC000A304C02031C14
:100290005229CC00CB0A0A304B02031C4529CB0162
:1002A000CA0A45294B0E4C070800CD008F30CD02FD
:1002B000CD034D088F20CE00CE0803196229C62138
:1002C000CD0A59290800CD008F30CD02CD03CF01D2
:1002D000C12110304F02031D7229212221220F302B
:1002E000CD0267294D088F20CE00CE0803197C2946
:1002F000C621CF0ACD0A6929080083160910091101
:10030000891005309F0083128910091109102722D6
:10031000303097212B223030972114223030972112
:1003200020309721C321C121BF21AD210800F03920
:10033000D00008080F39D00483160808D2000F3007
:1003400088058312091550088800000009118316DA
:100350005208880083122D2208000630C4298030FC
:10036000C429C030C4299430C429D430C429803869
:10037000C429C038C4290830C4290E30C4290C301F
:10038000C4290130C42928300910C8290914D021F2
:10039000D1009721510E9721091C2D221922080006
:1003A000D000F13C031DD729EE30D000E4295008DD
:1003B000D13C031DDE29EE30D000E4295008BA3CC0
:1003C000031DE429DF30D000500808001030ED296B
:1003D0000130ED290230ED290330D3002030C62151
:1003E000D30BEE290800D400F039031DFB2920307F
:1003F000C621FD29D400540EFE2154080F39D30024
:10040000093C031C062A5308303E082A5308373E8D
:10041000C6290000000000000000000000000000ED
:1004200008000000A4301D2A000040301D2A1F30A3
:100430001D2A00000E301D2A0530D500D50B1E2ABE
:100440000800C830302A6430302A3230302A143064
:10045000302A0A30302A0530302A0230302A013062
:10046000D600F930D5000000D50B332AD60B312A3F
:100470000800C830442A6430442A3230442A1430F8
:10048000442A0A30442A0530D7006430D600F930B7
:10049000D5000000D50B492AD60B472AD70B452A91
:0204A000080052
:02400E00313F40
:00000001FF
