:020000040000FA
:100000000F218E2083160514851482309F008312E1
:1000100040309F001F14892083129F11892068207F
:100020001E08A20083161E088312A100412083121D
:100030009F15892068201E08A30083161E088312BE
:10004000A4005320232853216D30E7207A2125086E
:10005000D420AB00430890212B088C217A218530D5
:10006000E72043217B30E7207A212908D420AB0008
:10007000430890212B088C217A218730E720D12159
:100080000C28A108B000A208AE006430B100003016
:10009000AF00AB204108A6004208A5003308A80025
:1000A0003208A7000800A408AC006430AD009E2010
:1000B0003308A9003208AA00632008000130A8070D
:1000C000A20B5E2808000130A907A30B63280800D3
:1000D0001F151F19692808008207543465346D34D0
:1000E000703465347234613474347534723461340C
:1000F0003A3420340034483475346D346534643413
:10010000613464343A3420340034433400342534C8
:1001100000341430A000A00B8B280800A101A2011C
:10012000A301A401A701A801A901AA0108003C0894
:10013000BE070318BB0A3B08BD070800B301B201A4
:100140000830B4002C08AD0C0318B307B30CB20C84
:10015000B40BA3280800BF01C001C101C2011030C7
:10016000B400AF0CB10C031CBB283008C207031845
:10017000C10A2E08C107C10CC20CBF0CC00CB40BC5
:10018000B1280800B701B801B9011030B400B60DAC
:10019000B50DB90D3A0839020318B900B80DB70DFD
:1001A000B40BC72839080800C301C401C5000A30D0
:1001B0004502031CE428C500C40A0A304402031C9B
:1001C000D728C401C30AD728440E45070800C60033
:1001D0006C30C602C60346086C20C700C708031966
:1001E000F4285821C60AEB280800C6006C30C60265
:1001F000C603C801532110304802031D0429B3214E
:10020000B3210F30C602F92846086C20C700C70882
:1002100003190E295821C80AC60AFB2808008316AC
:1002200009100911891005309F00831289100911E6
:100230000910B92130302921BD2130302921A621D2
:1002400030302921203029215521532151213F21AE
:100250000800F039C90008080F39C90483160808D6
:10026000CB000F308805831209154908880000006B
:10027000091183164B0888008312BF21080006303D
:10028000562980305629C030562994305629D4300A
:10029000562980385629C0385629083056290E303C
:1002A00056290C30562901305629283009105A2970
:1002B00009146221CA0029214A0E2921091CBF21E3
:1002C000AB210800C900F13C031D6929EE30C900CB
:1002D00076294908D13C031D7029EE30C9007629E2
:1002E0004908BA3C031D7629DF30C90049080800D7
:1002F00010307F2901307F2902307F290330CC0064
:1003000020305821CC0B80290800CD00F039031D86
:100310008D29203058218F29CD004D0E90214D0878
:100320000F39CC00093C031C98294C08303E9A290F
:100330004C08373E58290000000000000000000073
:100340000000000008000000A430AF290000403089
:10035000AF291F30AF2900000E30AF290530CE0085
:10036000CE0BB0290800C830C2296430C22932300F
:10037000C2291430C2290A30C2290530C2290230EC
:10038000C2290130CF00F930CE000000CE0BC529C4
:10039000CF0BC3290800C830D6296430D6293230A3
:1003A000D6291430D6290A30D6290530D000643039
:1003B000CF00F930CE000000CE0BDB29CF0BD929BE
:0603C000D00BD729080054
:02400E00313F40
:00000001FF
