:020000040000FA
:100000003C21A220B120831687100514851482306C
:100010009F00831240309F001F149D2092010530E5
:100020009200AB2087143D309200FA3095000C30DE
:10003000970083129F11B1209D2083201E08A200EB
:1000400083161E088312A100522083129F15B1202F
:100050009D2083201E08A30083161E088312A4007F
:1000600061203228802188301421A721270801210E
:10007000AB0072204508BD212B08B921A72199307A
:10008000142170218F301421A7212A080121AB00EF
:1000900072204508BD212B08B921A7219B301421CE
:1000A000FE2119282108AE003030AF00CB203508E2
:1000B000B7003408B8006430BC00EF203A08A7004D
:1000C00008002408AE003030AF00CB203508B70060
:1000D0003408B8006430BC00EF203A08AA003908A0
:1000E000A90008000130AB0708000430BF00003051
:1000F000C0002908BD002A08BE00C3203F08AC008C
:100100004008AD0008001F151F1984280800820749
:10011000543465346D3470343A3420340034483407
:1001200075346D3465346434613464343A34203465
:10013000003443340034253400341430A000A00BC4
:100140009F280800A101A201A301A401A701A80101
:10015000A901AA01080095019701920103018710E6
:1001600008009E0183169E01831208008C1CB6288D
:100170008C1091010328BD09BE090130BE07031888
:10018000BD0A3E080800BB203E08C0070318BD0A90
:100190003D08BF070800B501B4010830B6002E08BD
:1001A000AF0C0318B507B50CB40CB60BD02808007B
:1001B000C101C201C301C4011030B600B10CB30CBF
:1001C000031CE8283208C4070318C30A3008C30711
:1001D000C30CC40CC10CC20CB60BDE280800B9015C
:1001E000BA01BB011030B600B80DB70DBB0D3C080D
:1001F0003B020318BB00BA0DB90DB60BF4283B083F
:100200000800C501C601C7000A304702031C1129B6
:10021000C700C60A0A304602031C0429C601C50AE3
:100220000429460E47070800C8008730C802C803E3
:1002300048088720C900C908031921298521C80A4F
:1002400018290800C8008730C802C803CA018021E5
:1002500010304A02031D3129E021E0210F30C8028D
:10026000262948088720C900C90803193B29852188
:10027000CA0AC80A2829080083160910091189101A
:1002800005309F008312891009110910E6213030D2
:100290005621EA2130305621D321303056212030EA
:1002A0005621822180217E216C210800F039CB006B
:1002B00008080F39CB0483160808CD000F308805D5
:1002C000831209154B0888000000091183164D0898
:1002D00088008312EC2108000630832980308329AE
:1002E000C030832994308329D430832980388329EE
:1002F000C0388329083083290E3083290C308329A4
:100300000130832928300910872909148F21CC0056
:1003100056214C0E5621091CEC21D8210800CB0097
:10032000F13C031D9629EE30CB00A3294B08D13CAC
:10033000031D9D29EE30CB00A3294B08BA3C031DB9
:10034000A329DF30CB004B0808001030AC29013066
:10035000AC290230AC290330CE0020308521CE0BF1
:10036000AD290800CF00F039031DBA2920308521BE
:10037000BC29CF004F0EBD214F080F39CE00093CDC
:10038000031CC5294E08303EC7294E08373E852933
:100390000000000000000000000000000000080055
:1003A0000000A430DC2900004030DC291F30DC29AB
:1003B00000000E30DC290530D000D00BDD2908000C
:1003C000C830EF296430EF293230EF291430EF299B
:1003D0000A30EF290530EF290230EF290130D10032
:1003E000F930D0000000D00BF229D10BF029080021
:1003F000C830032A6430032A3230032A1430032A17
:100400000A30032A0530D2006430D100F930D00020
:100410000000D00B082AD10B062AD20B042A0800B0
:02400E00313F40
:00000001FF
