:020000040000FA
:020000000528D1
:080008002728B001AD01AE0193
:10001000AF017621B3208316073081000711051444
:10002000851482309F008312A0308B0040309F00E7
:100030001F14AE209201053092003D309200AF3087
:1000400095000C309700C8203D3081002628AC0B6D
:100050002A28CB200B11090083129F11C320AE2048
:1000600094201E08A20083161E088312A10063209C
:1000700083129F15C320AE2094201E08A300831670
:100080001E088312A4007220BA2199304E21E1216A
:1000900025083B21A90083204808F7212908F321DE
:1000A000E121AA304E21AA21A0304E21E1212808C9
:1000B0003B21A90083204808F7212908F321E121E9
:1000C000AC304E2108002108B1003030B2000521CB
:1000D0003808BA003708BB006430BF0029213D084A
:1000E000A50008002408B1003030B200052138080E
:1000F000BA003708BB006430BF0029213D08A800C2
:100100003C08A70008000130A90708000430C2001D
:100110000030C3002708C0002808C100FD204208A5
:10012000AA004308AB0008001F151F1995280800F6
:100130008207543465346D3470343A3420340034DA
:10014000483475346D3465346434613464343A341D
:100150002034003443340034253400341430A000FB
:10016000A00BB0280800A101A201A301A401A501D0
:10017000A601A701A801AC01080095019701920111
:100180000301071108009E0183169E0183120800D7
:100190001430AC000800AD0A2D08B0003C08B002D5
:1001A0000319D320EF28AE0AAD0108002E08B000D5
:1001B0003C08B0020319DD20EF28AF0AAE010800A9
:1001C0002F08B0008108B0020319E720EF28AD0125
:1001D000AE01AF012C2007143822071008000800D8
:1001E0008C1CF0288C1091010528C009C109013030
:1001F000C1070318C00A41080800F5204108C307D9
:100200000318C00A4008C2070800B801B701083047
:10021000B9003108B20C0318B807B80CB70CB90B09
:100220000A290800C401C501C601C7011030B90080
:10023000B40CB60C031C22293508C7070318C60ADC
:100240003308C607C60CC70CC40CC50CB90B18295B
:100250000800BC01BD01BE011030B900BB0DBA0DD4
:10026000BE0D3F083E020318BE00BD0DBC0DB90B0C
:100270002E293E080800C801C901CA000A304A02F6
:10028000031C4B29CA00C90A0A304902031C3E2933
:10029000C901C80A3E29490E4A070800CB00983018
:1002A000CB02CB034B089820CC00CC0803195B2968
:1002B000BF21CB0A52290800CB009830CB02CB03D8
:1002C000CD01BA2110304D02031D6B291A221A22CA
:1002D0000F30CB0260294B089820CC00CC080319C2
:1002E0007529BF21CD0ACB0A62290800831609109F
:1002F0000911891005309F00831289100911091016
:100300002022303090212422303090210D223030B4
:10031000902120309021BC21BA21B821A6210800CB
:10032000F039CE0008080F39CE0483160808D00033
:100330000F308805831209154E0888000000091146
:100340008316500888008312262208000630BD2933
:100350008030BD29C030BD299430BD29D430BD299D
:100360008038BD29C038BD290830BD290E30BD29CF
:100370000C30BD290130BD2928300910C1290914CC
:10038000C921CF0090214F0E9021091C2622122254
:100390000800CE00F13C031DD029EE30CE00DD294F
:1003A0004E08D13C031DD729EE30CE00DD294E0882
:1003B000BA3C031DDD29DF30CE004E0808001030A6
:1003C000E6290130E6290230E6290330D100203049
:1003D000BF21D10BE7290800D200F039031DF42911
:1003E0002030BF21F629D200520EF72152080F39D2
:1003F000D100093C031CFF295108303E012A510855
:10040000373EBF290000000000000000000000008F
:10041000000008000000A430162A00004030162A10
:100420001F30162A00000E30162A0530D300D30BD9
:10043000172A0800C830292A6430292A3230292A8C
:100440001430292A0A30292A0530292A0230292A7B
:100450000130D400F930D3000000D30B2C2AD40B88
:100460002A2A0800C8303D2A64303D2A32303D2A0D
:1004700014303D2A0A303D2A0530D5006430D400BE
:10048000F930D3000000D30B422AD40B402AD50BFD
:040490003E2A0800F8
:02400E00313F40
:00000001FF
