:020000040000FA
:100000000821872083160514851482309F008312EF
:1000100040309F001F14822083129F118220612094
:100020001E08A20083161E088312A100412083121D
:100030009F15822061201E08A30083161E088312CC
:10004000A4004C2023284C216630E0207321260890
:10005000CD20A900410889212908852173217E30FE
:10006000E0203C217430E02073212708CD20A90036
:10007000410889212908852173218030E020CA2187
:100080000C28A108AA006430AB0097203108A60014
:100090003008A50057200800A408AA006430AB006F
:1000A00097203108A7003008A8005C200800013024
:1000B000A607A20B572808000130A707A30B5C284E
:1000C00008001F151F196228080082075434653480
:1000D0006D34703465347234613474347534723410
:1000E00061343A3420340034483475346D34653426
:1000F0006434613464343A3420340034433400349A
:10010000253400341430A000A00B84280800A1017D
:10011000A201A301A401A501A601A701A80108004D
:100120003A08BC070318B90A3908BB070800B1012F
:10013000B0010830B2002A08AB0C0318B107B10CAB
:10014000B00CB20B9C280800BD01BE01BF01C0016C
:100150001030B200AD0CAF0C031CB4282E08C00741
:100160000318BF0A2C08BF07BF0CC00CBD0CBE0C87
:10017000B20BAA280800B501B601B7011030B200D1
:10018000B40DB30DB70D380837020318B700B60D1C
:10019000B50DB20BC02837080800C101C201C30069
:1001A0000A304302031CDD28C300C20A0A3042029F
:1001B000031CD028C201C10AD028420E4307080000
:1001C000C4006530C402C40344086520C500C508E6
:1001D0000319ED285121C40AE4280800C400653041
:1001E000C402C403C6014C2110304602031DFD2881
:1001F000AC21AC210F30C402F22844086520C500B0
:10020000C508031907295121C60AC40AF4280800A1
:10021000831609100911891005309F008312891077
:1002200009110910B22130302221B62130302221AB
:100230009F2130302221203022214E214C214A2181
:1002400038210800F039C70008080F39C7048316A1
:100250000808C9000F30880583120915470888006F
:10026000000009118316490888008312B82108008C
:1002700006304F2980304F29C0304F2994304F2904
:10028000D4304F2980384F29C0384F2908304F29A2
:100290000E304F290C304F2901304F2928300910DA
:1002A000532909145B21C8002221480E2221091C70
:1002B000B821A4210800C700F13C031D6229EE30DB
:1002C000C7006F294708D13C031D6929EE30C700DC
:1002D0006F294708BA3C031D6F29DF30C700470864
:1002E000080010307829013078290230782903304D
:1002F000CA0020305121CA0B79290800CB00F039FF
:10030000031D8629203051218829CB004B0E8921DD
:100310004B080F39CA00093C031C91294A08303E9A
:1003200093294A08373E51290000000000000000D0
:1003300000000000000008000000A430A829000010
:100340004030A8291F30A82900000E30A829053008
:10035000CC00CC0BA9290800C830BB296430BB29CC
:100360003230BB291430BB290A30BB290530BB29E8
:100370000230BB290130CD00F930CC000000CC0B9D
:10038000BE29CD0BBC290800C830CF296430CF2945
:100390003230CF291430CF290A30CF290530CE0092
:1003A0006430CD00F930CC000000CC0BD429CD0B4B
:0803B000D229CE0BD029080070
:02400E00313F40
:00000001FF
