:020000040000FA
:100000003521A520831687100514851482309F00A2
:10001000831240309F001F14A020920105309200EF
:10002000AE203D309200AF3095000C309D00831221
:100030009F11A0207F201E08A20083161E08831295
:10004000A1004E2083129F15A0207F201E08A30030
:1000500083161E088312A4005D202E287921843087
:100060000D21A0212708FA20AB006E204508B621FB
:100070002B08B221A0219C300D21692192300D2145
:10008000A0212A08FA20AB006E204508B6212B08D3
:10009000B221A0219E300D21F72117282108AE00A2
:1000A0003030AF00C4203508B7003408B8006430E1
:1000B000BC00E8203A08A70008002408AE00303051
:1000C000AF00C4203508B7003408B8006430BC0065
:1000D000E8203A08AA003908A90008000130AB0757
:1000E00008000430BF000030C0002908BD002A0805
:1000F000BE00BC203F08AC004008AD0008001F1542
:100100001F19802808008207543465346D34703418
:1001100065347234613474347534723461343A3411
:1001200020340034483475346D34653464346134BB
:1001300064343A34203400344334003425340034F9
:100140001430A000A00BA2280800A101A201A30165
:10015000A401A701A801A901AA01080095019D0118
:100160009201030187100800BD09BE090130BE07D6
:100170000318BD0A3E080800B4203E08C007031853
:10018000BD0A3D08BF070800B501B4010830B6003C
:100190002E08AF0C0318B507B50CB40CB60BC92864
:1001A0000800C101C201C301C4011030B600B10C86
:1001B000B30C031CE1283208C4070318C30A300833
:1001C000C307C30CC40CC10CC20CB60BD728080063
:1001D000B901BA01BB011030B600B80DB70DBB0DA7
:1001E0003C083B020318BB00BA0DB90DB60BED2855
:1001F0003B080800C501C601C7000A304702031CBE
:100200000A29C700C60A0A304602031CFD28C60197
:10021000C50AFD28460E47070800C8008330C802FB
:10022000C80348088320C900C90803191A297E2178
:10023000C80A11290800C8008330C802C803CA01CF
:10024000792110304A02031D2A29D921D9210F30E2
:10025000C8021F2948088320C900C9080319342986
:100260007E21CA0AC80A212908008316091009112B
:10027000891005309F008312891009110910DF21B0
:1002800030304F21E32130304F21CC2130304F210D
:1002900020304F217B217921772165210800F03919
:1002A000CB0008080F39CB0483160808CD000F30A7
:1002B0008805831209154B08880000000911831670
:1002C0004D0888008312E521080006307C29803023
:1002D0007C29C0307C2994307C29D4307C2980381A
:1002E0007C29C0387C2908307C290E307C290C30D0
:1002F0007C2901307C2928300910802909148821A3
:10030000CC004F214C0E4F21091CE521D1210800C2
:10031000CB00F13C031D8F29EE30CB009C294B080C
:10032000D13C031D9629EE30CB009C294B08BA3CEA
:10033000031D9C29DF30CB004B0808001030A52995
:100340000130A5290230A5290330CE0020307E21BE
:10035000CE0BA6290800CF00F039031DB3292030A9
:100360007E21B529CF004F0EB6214F080F39CE00A0
:10037000093C031CBE294E08303EC0294E08373EBA
:100380007E290000000000000000000000000000C6
:1003900008000000A430D52900004030D5291F30C6
:1003A000D52900000E30D5290530D000D00BD62934
:1003B0000800C830E8296430E8293230E8291430D0
:1003C000E8290A30E8290530E8290230E829013017
:1003D000D100F930D0000000D00BEB29D10BE92976
:1003E0000800C830FC296430FC293230FC29143064
:1003F000FC290A30FC290530D2006430D100F930E4
:10040000D0000000D00B012AD10BFF29D20BFD290F
:020410000800E2
:02400E00313F40
:00000001FF
